:020000040000FA
:100000000C945D000C9476040C944F040C948500C1
:100010000C9485000C9485000C9485000C9485004C
:100020000C9485000C9485000C9485000C9485003C
:100030000C9485000C9485000C9485000C9485002C
:100040000C9405040C9485000C94D3030C94AD031C
:100050000C9485000C9485000C9485000C9485000C
:100060000C9485000C94850000000008000201003B
:100070000003040700000000000000000000000072
:10008000250028002B0000000000240027002A0083
:10009000040404040404040402020202020203032E
:1000A0000303030301020408102040800102040836
:1000B00010200102040810209D0411241FBECFEF60
:1000C000D8E0DEBFCDBF11E0A0E0B1E0E6E8FCE0A3
:1000D00002C005900D92A234B107D9F722E0A2E444
:1000E000B1E001C01D92A430B207E1F710E0CDE508
:1000F000D0E004C02197FE010E943B06CC35D10719
:10010000C9F70E94E7040C9441060C94000090E0AB
:10011000FC01EC55FF4F249180579F4FFC018491C7
:10012000882399F090E0880F991FFC01EA57FF4F50
:10013000A591B491FC01E458FF4F859194918FB73C
:10014000F894EC91E22BEC938FBF089580914B01D2
:1001500090914C01019690934C0180934B0108952E
:10016000AF92BF92CF92DF92EF92FF920F931F93C5
:10017000CF93DF936C017B018B01040F151FEB0103
:100180005E01AE18BF08C017D10759F06991D601BA
:10019000ED91FC910190F081E02DC6010995892B2C
:1001A00079F7C501DF91CF911F910F91FF90EF90EB
:1001B000DF90CF90BF90AF900895FC01538D448D98
:1001C000252F30E0842F90E0821B930B541710F002
:1001D000CF96089501970895FC01918D828D98170F
:1001E00061F0A28DAE0FBF2FB11D5D968C91928DE7
:1001F0009F5F9F73928F90E008958FEF9FEF089518
:10020000FC01918D828D981731F0828DE80FF11DE0
:10021000858D90E008958FEF9FEF0895FC01918DFB
:10022000228D892F90E0805C9F4F821B91098F73F4
:10023000992708958FE491E00E940E0121E0892B17
:1002400009F420E0822F089580E090E0892B29F0C6
:100250000E941A0181110C9400000895FC01A48DE4
:10026000A80FB92FB11DA35ABF4F2C91848D90E0D8
:1002700001968F739927848FA689B7892C93A089BB
:10028000B1898C91837080648C93938D848D981345
:1002900006C00288F389E02D80818F7D80830895D8
:1002A000EF92FF920F931F93CF93DF93EC0181E0C6
:1002B000888F9B8D8C8D98131AC0E889F98980816D
:1002C00085FF15C09FB7F894EE89FF896083E889A0
:1002D000F98980818370806480839FBF81E090E092
:1002E000DF91CF911F910F91FF90EF900895F62E1F
:1002F0000B8D10E00F5F1F4F0F731127E02E8C8DB9
:100300008E110CC00FB607FCFACFE889F9898081FD
:1003100085FFF5CFCE010E942E01F1CFEB8DEC0FC2
:10032000FD2FF11DE35AFF4FF0829FB7F8940B8F1A
:10033000EA89FB8980818062CFCFCF93DF93EC0184
:10034000888D8823B9F0AA89BB89E889F9898C91BD
:1003500085FD03C0808186FD0DC00FB607FCF7CF79
:100360008C9185FFF2CF808185FFEDCFCE010E9479
:100370002E01E9CFDF91CF91089590E0FC01E8597B
:10038000FF4F2491FC01EC55FF4F3491FC01E057E5
:10039000FF4FE491EE23C9F0222339F0233001F11D
:1003A000A8F4213019F1223029F1F0E0EE0FFF1FFF
:1003B000E458FF4FA591B4918FB7F894EC91611177
:1003C00026C030953E233C938FBF08952730A9F077
:1003D0002830C9F0243049F7809180008F7D03C018
:1003E000809180008F7780938000DFCF84B58F77F6
:1003F00084BDDBCF84B58F7DFBCF8091B0008F773C
:100400008093B000D2CF8091B0008F7DF9CF3E2B8A
:10041000DACF0895089590E080E00895CF93DF93B8
:10042000EC0160E08E810E94BD0161E08E810E943E
:10043000BD0160E08E810E94BD018BE891E00197D3
:10044000F1F7DF91CF910895CF92DF92EF92FF9273
:100450000F931F93CF93DF936C017C0187E0E80E2D
:10046000F11CD0E0C0E0062F10E0B8010C2E02C055
:10047000759567950A94E2F76170F70181917F01A4
:100480000E94BD012196C430D10579F7C601DF91E4
:10049000CF911F910F91FF90EF90DF90CF900C9430
:1004A0000E02CF92DF92EF92FF920F931F93CF93A2
:1004B000DF93EC01F62E642F8C810E94BD018D81AB
:1004C0008F3F19F060E00E94BD010F2D10E08F8575
:1004D00084FF25C06E0187E0C80ED11CF12CE12CF1
:1004E000B8010E2C02C0759567950A94E2F7617009
:1004F000F60181916F010E94BD01FFEFEF1AFF0A23
:1005000088E0E816F10461F7CE01DF91CF911F91E9
:100510000F91FF90EF90DF90CF900C940E02B801F6
:1005200084E0759567958A95E1F7CE010E942402D3
:100530006F2DCE01DF91CF911F910F91FF90EF9022
:10054000DF90CF900C94240240E0682F8CEE91E075
:100550000C945102CF93DF93823029F49091FB01E8
:1005600098609093FB018093FF011092000280E459
:100570008093010280E18093020280E58093030270
:100580008091F0010E9487008091F1018F3F11F06E
:100590000E9487008091F2010E948700CCEED1E09A
:1005A0009E012C5E31408091FB0184FD0AC084E0F5
:1005B00090E02196281739073CF48E810E9487002D
:1005C000EFCF88E090E0F5CF8BE39DE00197F1F766
:1005D00060E08091F0010E94BD0160E08091F20135
:1005E0000E94BD018091F1018F3F19F060E00E94EF
:1005F000BD018091FB0184FD39C063E08CEE91E088
:100600000E942402CBE4D6E4CE010197F1F763E027
:100610008CEE91E00E9424022197F1F763E08CEECA
:1006200091E00E94240283E592E00197F1F762E0F5
:100630008CEE91E00E9424028091FB0180620E9476
:10064000A40284E08093FC018CE00E94A40281E07B
:100650000E94A4028BE39FE10197F1F782E080936F
:10066000FD0186E0DF91CF910C94A40280620E948C
:10067000A4028BE496E40197F1F78091FB0180627C
:100680000E94A40283E592E00197F1F78091FB01BB
:1006900080620E94A402D0CF41E00E94510281E01A
:1006A00090E00895FB0101900020E9F73197AF0138
:1006B000461B570BDC01ED91FC910280F381E02D8C
:1006C00009948F929F92AF92BF92EF92FF920F93F5
:1006D0001F93CF93DF93CDB7DEB7A1970FB6F894F2
:1006E000DEBF0FBECDBF7C01FA01CB0119A22230C3
:1006F00008F42AE08E010F5D1F4F822E912CB12C41
:10070000A12CBF01A50194010E941906F901CA019B
:100710006A300CF5605DD8016E938D01232B242B7C
:10072000252B79F790E080E0109721F0BD01C701FB
:100730000E945203A1960FB6F894DEBF0FBECDBF44
:10074000DF91CF911F910F91FF90EF90BF90AF90ED
:100750009F908F900895695CDECF1F920F920FB625
:100760000F9211242F933F934F935F936F937F9337
:100770008F939F93AF93BF93EF93FF938FE491E099
:100780000E942E01FF91EF91BF91AF919F918F91A8
:100790007F916F915F914F913F912F910F900FBE7D
:1007A0000F901F9018951F920F920FB60F92112461
:1007B0002F938F939F93EF93FF93E0915F01F091BD
:1007C00060018081E0916501F091660182FD1BC0AE
:1007D0009081809168018F5F8F73209169018217EA
:1007E00041F0E0916801F0E0E15BFE4F958F80936E
:1007F0006801FF91EF919F918F912F910F900FBE04
:100800000F901F9018958081F4CF1F920F920FB612
:100810000F9211242F933F938F939F93AF93BF9386
:100820008091470190914801A0914901B0914A01FE
:100830003091460123E0230F2D3758F50196A11D75
:10084000B11D209346018093470190934801A093E6
:100850004901B0934A018091420190914301A091D6
:100860004401B09145010196A11DB11D8093420143
:1008700090934301A0934401B0934501BF91AF9180
:100880009F918F913F912F910F900FBE0F901F90CE
:10089000189526E8230F0296A11DB11DD2CF1F92F5
:1008A0000F920FB60F9211242F933F934F935F93A4
:1008B0006F937F938F939F93AF93BF93EF93FF9328
:1008C000E0910201F09103010995FF91EF91BF9131
:1008D000AF919F918F917F916F915F914F913F91D8
:1008E0002F910F900FBE0F901F9018951F920F928F
:1008F0000FB60F9211242F933F934F935F936F93F3
:100900007F938F939F93AF93BF93EF93FF93E09168
:100910000001F09101010995FF91EF91BF91AF9115
:100920009F918F917F916F915F914F913F912F9107
:100930000F900FBE0F901F901895EFE4F1E0138217
:10094000128288EE93E0A0E0B0E084839583A683D2
:10095000B78388E091E09183808385EC90E0958770
:10096000848784EC90E09787868780EC90E0918B79
:10097000808B81EC90E0938B828B82EC90E0958B66
:10098000848B86EC90E0978B868B118E128E138E63
:10099000148EECEEF1E0138212828AE191E09183F1
:1009A000808389E084838FEF858388E0868387E076
:1009B000878386E0808785E0818784E0828713864D
:1009C000148615861686178681E00C94AA02789400
:1009D00084B5826084BD84B5816084BD85B5826044
:1009E00085BD85B5816085BD80916E0081608093F5
:1009F0006E0010928100809181008260809381005E
:100A0000809181008160809381008091800081606D
:100A1000809380008091B10084608093B1008091C8
:100A2000B00081608093B00080917A0084608093F0
:100A30007A0080917A00826080937A0080917A00B7
:100A4000816080937A0080917A00806880937A0038
:100A50001092C10082E00E94AA02E0915F01F09131
:100A6000600182E08083E0915B01F0915C01108283
:100A7000E0915D01F0915E018FEC8083109267013F
:100A8000E0916301F091640186E08083E09161016F
:100A9000F0916201808180618083E0916101F09139
:100AA0006201808188608083E0916101F091620140
:100AB000808180688083E0916101F0916201808192
:100AC0008F7D808362E271E08FE491E00E945203A7
:100AD00061E371E08FE491E00E94520386EA90E0C6
:100AE000909301018093000180916900836080935D
:100AF0006900E89AE1E08091FF018111E0E0E19571
:100B0000F0E0E451FE4F848980680E94A40262E212
:100B100071E08CEE91E00E94520300E010E08091C1
:100B20004B0190914C0120914D0130914E012817BD
:100B3000390709F470C0C0904B01D0904C010D2CC6
:100B4000000CEE08FF082AE0B701A601F7FE0DC071
:100B50006DE28FE491E00E94500144275527BA01CD
:100B60004C195D096E097F092AE08FE491E00E942B
:100B7000610361E371E08FE491E00E945203C09051
:100B80004B01D0904C01E1E08091FF018111E0E048
:100B9000E195F0E0E451FE4F848980680E94A40250
:100BA00062E271E08CEE91E00E945203E091FF015D
:100BB000E230E8F5E150F0E0E451FE4F84898068CE
:100BC0000E94A4020D2C000CEE08FF082AE0B701D9
:100BD000A601F7FE0EC041E06DE28CEE91E00E94AE
:100BE000510244275527BA014C195D096E097F0946
:100BF0002AE08CEE91E00E94610364E371E08CEEE8
:100C000091E00E94520380914B0190914C0190938E
:100C10004E0180934D010115110509F480CF0E940A
:100C20001A01882309F47BCF0E94000078CFE1E00D
:100C3000C2CFA1E21A2EAA1BBB1BFD010DC0AA1F29
:100C4000BB1FEE1FFF1FA217B307E407F50720F035
:100C5000A21BB30BE40BF50B661F771F881F991FB0
:100C60001A9469F760957095809590959B01AC01F9
:100C7000BD01CF010895EE0FFF1F0590F491E02D07
:100C80000994F894FFCF0902090200000000500106
:100C9000B000DD009D010E01EC000001000000002D
:100CA0004C03B0000B020A02496E746572727570D3
:100CB00063696F6E6573000D0A0020205061736FC9
:080CC000732E2020202000000B
:107E0000112484B714BE81FFF0D085E080938100F7
:107E100082E08093C00088E18093C10086E0809377
:107E2000C20080E18093C4008EE0C9D0259A86E02C
:107E300020E33CEF91E0309385002093840096BBD3
:107E4000B09BFECF1D9AA8958150A9F7CC24DD24C4
:107E500088248394B5E0AB2EA1E19A2EF3E0BF2EE7
:107E6000A2D0813461F49FD0082FAFD0023811F036
:107E7000013811F484E001C083E08DD089C08234E0
:107E800011F484E103C0853419F485E0A6D080C0E4
:107E9000853579F488D0E82EFF2485D0082F10E0AE
:107EA000102F00270E291F29000F111F8ED06801E7
:107EB0006FC0863521F484E090D080E0DECF843638
:107EC00009F040C070D06FD0082F6DD080E0C81688
:107ED00080E7D80618F4F601B7BEE895C0E0D1E017
:107EE00062D089930C17E1F7F0E0CF16F0E7DF06D8
:107EF00018F0F601B7BEE89568D007B600FCFDCFD4
:107F0000A601A0E0B1E02C9130E011968C91119780
:107F100090E0982F8827822B932B1296FA010C0160
:107F200087BEE89511244E5F5F4FF1E0A038BF0790
:107F300051F7F601A7BEE89507B600FCFDCF97BE46
:107F4000E89526C08437B1F42ED02DD0F82E2BD052
:107F50003CD0F601EF2C8F010F5F1F4F84911BD097
:107F6000EA94F801C1F70894C11CD11CFA94CF0C13
:107F7000D11C0EC0853739F428D08EE10CD085E9AC
:107F80000AD08FE07ACF813511F488E018D01DD067
:107F900080E101D065CF982F8091C00085FFFCCF94
:107FA0009093C60008958091C00087FFFCCF809118
:107FB000C00084FD01C0A8958091C6000895E0E648
:107FC000F0E098E1908380830895EDDF803219F02E
:107FD00088E0F5DFFFCF84E1DECF1F93182FE3DFCA
:107FE0001150E9F7F2DF1F91089580E0E8DFEE27F6
:047FF000FF270994CA
:027FFE00040479
:00000001FF
